{
  "_format": "hh-sol-artifact-1",
  "contractName": "SimpleVoting_uint32",
  "sourceName": "contracts/SimpleVoting_uint32.sol",
  "abi": [
    {
      "anonymous": false,
      "inputs": [
        {
          "indexed": true,
          "internalType": "uint256",
          "name": "sessionId",
          "type": "uint256"
        },
        {
          "indexed": true,
          "internalType": "address",
          "name": "creator",
          "type": "address"
        },
        {
          "indexed": false,
          "internalType": "uint256",
          "name": "endTime",
          "type": "uint256"
        }
      ],
      "name": "SessionCreated",
      "type": "event"
    },
    {
      "anonymous": false,
      "inputs": [
        {
          "indexed": true,
          "internalType": "uint256",
          "name": "sessionId",
          "type": "uint256"
        },
        {
          "indexed": false,
          "internalType": "uint32",
          "name": "yesVotes",
          "type": "uint32"
        },
        {
          "indexed": false,
          "internalType": "uint32",
          "name": "noVotes",
          "type": "uint32"
        }
      ],
      "name": "SessionResolved",
      "type": "event"
    },
    {
      "anonymous": false,
      "inputs": [
        {
          "indexed": true,
          "internalType": "uint256",
          "name": "sessionId",
          "type": "uint256"
        },
        {
          "indexed": false,
          "internalType": "bytes32",
          "name": "yesVotesHandle",
          "type": "bytes32"
        },
        {
          "indexed": false,
          "internalType": "bytes32",
          "name": "noVotesHandle",
          "type": "bytes32"
        }
      ],
      "name": "TallyRevealRequested",
      "type": "event"
    },
    {
      "anonymous": false,
      "inputs": [
        {
          "indexed": true,
          "internalType": "uint256",
          "name": "sessionId",
          "type": "uint256"
        },
        {
          "indexed": true,
          "internalType": "address",
          "name": "voter",
          "type": "address"
        }
      ],
      "name": "VoteCast",
      "type": "event"
    },
    {
      "inputs": [
        {
          "internalType": "uint256",
          "name": "durationSeconds",
          "type": "uint256"
        }
      ],
      "name": "createSession",
      "outputs": [],
      "stateMutability": "nonpayable",
      "type": "function"
    },
    {
      "inputs": [
        {
          "internalType": "uint256",
          "name": "sessionId",
          "type": "uint256"
        }
      ],
      "name": "getSession",
      "outputs": [
        {
          "internalType": "address",
          "name": "creator",
          "type": "address"
        },
        {
          "internalType": "uint256",
          "name": "endTime",
          "type": "uint256"
        },
        {
          "internalType": "bool",
          "name": "resolved",
          "type": "bool"
        },
        {
          "internalType": "uint32",
          "name": "yesVotes",
          "type": "uint32"
        },
        {
          "internalType": "uint32",
          "name": "noVotes",
          "type": "uint32"
        }
      ],
      "stateMutability": "view",
      "type": "function"
    },
    {
      "inputs": [],
      "name": "getSessionCount",
      "outputs": [
        {
          "internalType": "uint256",
          "name": "",
          "type": "uint256"
        }
      ],
      "stateMutability": "view",
      "type": "function"
    },
    {
      "inputs": [
        {
          "internalType": "uint256",
          "name": "",
          "type": "uint256"
        },
        {
          "internalType": "address",
          "name": "",
          "type": "address"
        }
      ],
      "name": "hasVoted",
      "outputs": [
        {
          "internalType": "bool",
          "name": "",
          "type": "bool"
        }
      ],
      "stateMutability": "view",
      "type": "function"
    },
    {
      "inputs": [],
      "name": "protocolId",
      "outputs": [
        {
          "internalType": "uint256",
          "name": "",
          "type": "uint256"
        }
      ],
      "stateMutability": "view",
      "type": "function"
    },
    {
      "inputs": [
        {
          "internalType": "uint256",
          "name": "sessionId",
          "type": "uint256"
        }
      ],
      "name": "requestTallyReveal",
      "outputs": [],
      "stateMutability": "nonpayable",
      "type": "function"
    },
    {
      "inputs": [
        {
          "internalType": "uint256",
          "name": "sessionId",
          "type": "uint256"
        },
        {
          "internalType": "bytes",
          "name": "cleartexts",
          "type": "bytes"
        },
        {
          "internalType": "bytes",
          "name": "decryptionProof",
          "type": "bytes"
        }
      ],
      "name": "resolveTallyCallback",
      "outputs": [],
      "stateMutability": "nonpayable",
      "type": "function"
    },
    {
      "inputs": [
        {
          "internalType": "uint256",
          "name": "",
          "type": "uint256"
        }
      ],
      "name": "sessions",
      "outputs": [
        {
          "internalType": "address",
          "name": "creator",
          "type": "address"
        },
        {
          "internalType": "uint256",
          "name": "endTime",
          "type": "uint256"
        },
        {
          "internalType": "euint32",
          "name": "yesVotes",
          "type": "bytes32"
        },
        {
          "internalType": "euint32",
          "name": "noVotes",
          "type": "bytes32"
        },
        {
          "internalType": "bool",
          "name": "resolved",
          "type": "bool"
        },
        {
          "internalType": "uint32",
          "name": "revealedYes",
          "type": "uint32"
        },
        {
          "internalType": "uint32",
          "name": "revealedNo",
          "type": "uint32"
        },
        {
          "internalType": "bool",
          "name": "revealRequested",
          "type": "bool"
        }
      ],
      "stateMutability": "view",
      "type": "function"
    },
    {
      "inputs": [
        {
          "internalType": "uint256",
          "name": "sessionId",
          "type": "uint256"
        },
        {
          "internalType": "externalEuint32",
          "name": "encryptedVote",
          "type": "bytes32"
        },
        {
          "internalType": "bytes",
          "name": "proof",
          "type": "bytes"
        }
      ],
      "name": "vote",
      "outputs": [],
      "stateMutability": "nonpayable",
      "type": "function"
    }
  ],
  "bytecode": "0x608060405234801562000010575f80fd5b50466001036200010557620000ff6200005660408051606080820183525f8083526020808401829052928401819052835191820184528082529181018290529182015290565b80517f9e7b61f58c47dc699ac88507c4f5bb9f121c03808c5676a8078fe583e464970080546001600160a01b03199081166001600160a01b039384161790915560208301517f9e7b61f58c47dc699ac88507c4f5bb9f121c03808c5676a8078fe583e46497018054831691841691909117905560408301517f9e7b61f58c47dc699ac88507c4f5bb9f121c03808c5676a8078fe583e46497028054909216921691909117905550565b62000218565b4662aa36a7036200018f57620000ff62000056604080516060810182525f808252602082018190529181019190915250604080516060810182527350157cffd6bbfa2dece204a89ec419c23ef5755d815273e3a9105a3a932253a70f126eb1e3b589c643dd24602082015273be0e383937d564d7ff0bc3b46c51f0bf8d5c311a9181019190915290565b46617a6903620000ff57620000ff62000056604080516060810182525f808252602082018190529181019190915250604080516060810182527350157cffd6bbfa2dece204a89ec419c23ef5755d815273e3a9105a3a932253a70f126eb1e3b589c643dd24602082015273be0e383937d564d7ff0bc3b46c51f0bf8d5c311a9181019190915290565b61184680620002265f395ff3fe608060405234801561000f575f80fd5b506004361061009f575f3560e01c80636e6734bf11610072578063da1f12ab11610058578063da1f12ab146101d4578063f0c42e0f146101dc578063f847cdde146101ef575f80fd5b80636e6734bf1461015e57806383c4b7a31461016f575f80fd5b8063402ff0db146100a357806343859632146100f95780634ba39f42146101365780635eff1bb81461014b575b5f80fd5b6100b66100b136600461146d565b610202565b604080516001600160a01b03909616865260208601949094529115159284019290925263ffffffff918216606084015216608082015260a0015b60405180910390f35b610126610107366004611484565b600160209081525f928352604080842090915290825290205460ff1681565b60405190151581526020016100f0565b61014961014436600461146d565b6102e7565b005b6101496101593660046114bd565b610532565b5f545b6040519081526020016100f0565b61018261017d36600461146d565b6107af565b604080516001600160a01b03909916895260208901979097529587019490945260608601929092521515608085015263ffffffff90811660a08501521660c0830152151560e0820152610100016100f0565b610161610825565b6101496101ea3660046115d3565b61085a565b6101496101fd36600461146d565b610ace565b5f805f805f808054905086106102515760405162461bcd60e51b815260206004820152600f60248201526e24b73b30b634b21039b2b9b9b4b7b760891b60448201526064015b60405180910390fd5b5f8087815481106102645761026461163b565b5f91825260209091206005909102018054600182015460048301549293506001600160a01b039091169160ff168061029c575f6102ad565b6004840154610100900463ffffffff165b600485015460ff166102bf575f6102d4565b600485015465010000000000900463ffffffff165b939b929a50909850965090945092505050565b5f5481106103295760405162461bcd60e51b815260206004820152600f60248201526e24b73b30b634b21039b2b9b9b4b7b760891b6044820152606401610248565b5f80828154811061033c5761033c61163b565b905f5260205f2090600502019050806001015442101561039e5760405162461bcd60e51b815260206004820152601060248201527f566f74696e67206e6f7420656e646564000000000000000000000000000000006044820152606401610248565b600481015460ff16156103e65760405162461bcd60e51b815260206004820152601060248201526f105b1c9958591e481c995cdbdb1d995960821b6044820152606401610248565b60048101546901000000000000000000900460ff16156104485760405162461bcd60e51b815260206004820152601860248201527f52657665616c20616c72656164792072657175657374656400000000000000006044820152606401610248565b80546001600160a01b031633146104a15760405162461bcd60e51b815260206004820152601f60248201527f4f6e6c792063726561746f722063616e20726571756573742072657665616c006044820152606401610248565b60048101805469ff0000000000000000001916690100000000000000000017905560028101546104d090610d51565b600282015560038101546104e390610d51565b6003820181905560028201546040805182815260208101849052815192939286927f6d3eb8814fef1c051029e2e242037563df7ad27e93ffc3baa3d9a044bdd36cd3928290030190a250505050565b5f5484106105745760405162461bcd60e51b815260206004820152600f60248201526e24b73b30b634b21039b2b9b9b4b7b760891b6044820152606401610248565b5f8085815481106105875761058761163b565b905f5260205f2090600502019050806001015442106105e85760405162461bcd60e51b815260206004820152600c60248201527f566f74696e6720656e64656400000000000000000000000000000000000000006044820152606401610248565b5f85815260016020908152604080832033845290915290205460ff16156106515760405162461bcd60e51b815260206004820152600d60248201527f416c726561647920766f746564000000000000000000000000000000000000006044820152606401610248565b5f6106918585858080601f0160208091040260200160405190810160405280939291908181526020018383808284375f92019190915250610d5f92505050565b90505f61069e6001610d75565b90505f6106aa5f610d75565b90505f6106b76001610d75565b90506106e285600201546106dd6106ce8787610d87565b846106d85f610d75565b610db5565b610dfe565b600286015560038501546106fd906106dd6106ce8786610d87565b6003860155600285015461071090610e2c565b5061071e8560030154610e2c565b506002850154855461073991906001600160a01b0316610e37565b506003850154855461075491906001600160a01b0316610e37565b505f898152600160208181526040808420338086529252808420805460ff1916909317909255905190918b917ff1003b73c437642c0460aee9cd9628b0b8c447b66e6c7c905531b9c644214a119190a3505050505050505050565b5f81815481106107bd575f80fd5b5f918252602090912060059091020180546001820154600283015460038401546004909401546001600160a01b0390931694509092909160ff8082169163ffffffff610100820481169265010000000000830490911691690100000000000000000090041688565b5f466001036108345750600190565b4662aa36a703610845575061271190565b46617a6903610855575061271190565b505f90565b5f54831061089c5760405162461bcd60e51b815260206004820152600f60248201526e24b73b30b634b21039b2b9b9b4b7b760891b6044820152606401610248565b5f8084815481106108af576108af61163b565b905f5260205f20906005020190508060040160099054906101000a900460ff1661091b5760405162461bcd60e51b815260206004820152601460248201527f52657665616c206e6f74207265717565737465640000000000000000000000006044820152606401610248565b600481015460ff16156109635760405162461bcd60e51b815260206004820152601060248201526f105b1c9958591e481c995cdbdb1d995960821b6044820152606401610248565b6040805160028082526060820183525f926020830190803683375050506002830154909150815f8151811061099a5761099a61163b565b60209081029190910101526003820154816001815181106109bd576109bd61163b565b6020026020010181815250506109d4818585610e49565b610a205760405162461bcd60e51b815260206004820152601860248201527f496e76616c69642064656372797074696f6e2070726f6f6600000000000000006044820152606401610248565b5f8085806020019051810190610a369190611667565b600486018054600168ffffffffffffffff001990911661010063ffffffff86811691820268ffffffff0000000000191692909217650100000000009286169283021760ff19169290921790925560408051918252602082019290925292945090925088917ff39ee70403b9400ea5475de3bf6deec46106610f01d7f8c2ca0c715e3593d417910160405180910390a250505050505050565b5f8111610b1d5760405162461bcd60e51b815260206004820152601960248201527f4475726174696f6e206d75737420626520706f736974697665000000000000006044820152606401610248565b6040805161010081019091523381525f9060208101610b3c84426116ac565b8152602001610b4a5f610d75565b8152602001610b585f610d75565b81525f602080830182905260408084018390526060808501849052608094850184905283546001808201865585805287517f290decd9548b62a8d60345a988386fc84ba6bc95484008f6362f93160ef3e563600590930292830180547fffffffffffffffffffffffff0000000000000000000000000000000000000000166001600160a01b03909216919091179055938701517f290decd9548b62a8d60345a988386fc84ba6bc95484008f6362f93160ef3e564820155918601517f290decd9548b62a8d60345a988386fc84ba6bc95484008f6362f93160ef3e5658301558501517f290decd9548b62a8d60345a988386fc84ba6bc95484008f6362f93160ef3e566820155928401517f290decd9548b62a8d60345a988386fc84ba6bc95484008f6362f93160ef3e567909301805460a086015160c087015160e088015164ffffffffff1990931696151564ffffffff0019169690961761010063ffffffff928316021769ffffffffff0000000000191665010000000000919096160269ff00000000000000000019169490941769010000000000000000009415159490940293909317909255549192503391610d1091906116bf565b7f658891ce811ff307aab5be445fb05fffbcd9a125b10915b1aba719e376c537718360200151604051610d4591815260200190565b60405180910390a35050565b5f610d5b82610f09565b5090565b5f610d6c83836004610fcc565b90505b92915050565b5f610d6f8263ffffffff1660046110ec565b5f82610d9957610d965f610d75565b92505b81610daa57610da75f610d75565b91505b610d6c83835f6111a9565b5f83610dc757610dc45f6112a4565b93505b82610dd857610dd55f610d75565b92505b81610de957610de65f610d75565b91505b610df48484846112bf565b90505b9392505050565b5f82610e1057610e0d5f610d75565b92505b81610e2157610e1e5f610d75565b91505b610d6c83835f61135f565b5f610d5b8230611414565b5f610e428383611414565b5090919050565b7f9e7b61f58c47dc699ac88507c4f5bb9f121c03808c5676a8078fe583e4649702546040516378542ead60e01b81525f917f9e7b61f58c47dc699ac88507c4f5bb9f121c03808c5676a8078fe583e4649700916001600160a01b03909116906378542ead90610ec09088908890889060040161174f565b6020604051808303815f875af1158015610edc573d5f803e3d5ffd5b505050506040513d601f19601f82011682018060405250810190610f009190611787565b95945050505050565b6040805160018082528183019092527f9e7b61f58c47dc699ac88507c4f5bb9f121c03808c5676a8078fe583e4649700915f91906020808301908036833701905050905082815f81518110610f6057610f6061163b565b60209081029190910101528154604051637d6e912360e11b81526001600160a01b039091169063fadd224690610f9a9084906004016117a6565b5f604051808303815f87803b158015610fb1575f80fd5b505af1158015610fc3573d5f803e3d5ffd5b50505050505050565b7f9e7b61f58c47dc699ac88507c4f5bb9f121c03808c5676a8078fe583e46497015460405163045fc19560e11b81525f917f9e7b61f58c47dc699ac88507c4f5bb9f121c03808c5676a8078fe583e4649700916001600160a01b03909116906308bf832a906110459088903390899089906004016117d8565b6020604051808303815f875af1158015611061573d5f803e3d5ffd5b505050506040513d601f19601f82011682018060405250810190611085919061180e565b8154604051630f8e573b60e21b8152600481018390523360248201529193506001600160a01b031690633e395cec906044015f604051808303815f87803b1580156110ce575f80fd5b505af11580156110e0573d5f803e3d5ffd5b50505050509392505050565b7f9e7b61f58c47dc699ac88507c4f5bb9f121c03808c5676a8078fe583e464970154604051639cd07acb60e01b81525f917f9e7b61f58c47dc699ac88507c4f5bb9f121c03808c5676a8078fe583e4649700916001600160a01b0390911690639cd07acb906111619087908790600401611825565b6020604051808303815f875af115801561117d573d5f803e3d5ffd5b505050506040513d601f19601f820116820180604052508101906111a1919061180e565b949350505050565b5f8082156111bc5750600160f81b6111bf565b505f5b7f9e7b61f58c47dc699ac88507c4f5bb9f121c03808c5676a8078fe583e46497015460405163f77f3f1d60e01b815260048101879052602481018690527fff00000000000000000000000000000000000000000000000000000000000000831660448201527f9e7b61f58c47dc699ac88507c4f5bb9f121c03808c5676a8078fe583e4649700916001600160a01b03169063f77f3f1d906064015b6020604051808303815f875af1158015611276573d5f803e3d5ffd5b505050506040513d601f19601f8201168201806040525081019061129a919061180e565b9695505050505050565b5f610d6f826112b3575f6112b6565b60015b60ff165f6110ec565b5f807f9e7b61f58c47dc699ac88507c4f5bb9f121c03808c5676a8078fe583e46497006001810154604051637702dcff60e01b81526004810188905260248101879052604481018690529192506001600160a01b031690637702dcff906064016020604051808303815f875af115801561133b573d5f803e3d5ffd5b505050506040513d601f19601f82011682018060405250810190610f00919061180e565b5f8082156113725750600160f81b611375565b505f5b7f9e7b61f58c47dc699ac88507c4f5bb9f121c03808c5676a8078fe583e46497015460405163022f65e760e31b815260048101879052602481018690527fff00000000000000000000000000000000000000000000000000000000000000831660448201527f9e7b61f58c47dc699ac88507c4f5bb9f121c03808c5676a8078fe583e4649700916001600160a01b03169063117b2f389060640161125a565b7f9e7b61f58c47dc699ac88507c4f5bb9f121c03808c5676a8078fe583e46497008054604051635ca4b5b160e11b8152600481018590526001600160a01b0384811660248301529091169063b9496b6290604401610f9a565b5f6020828403121561147d575f80fd5b5035919050565b5f8060408385031215611495575f80fd5b8235915060208301356001600160a01b03811681146114b2575f80fd5b809150509250929050565b5f805f80606085870312156114d0575f80fd5b8435935060208501359250604085013567ffffffffffffffff808211156114f5575f80fd5b818701915087601f830112611508575f80fd5b813581811115611516575f80fd5b886020828501011115611527575f80fd5b95989497505060200194505050565b634e487b7160e01b5f52604160045260245ffd5b5f82601f830112611559575f80fd5b813567ffffffffffffffff8082111561157457611574611536565b604051601f8301601f19908116603f0116810190828211818310171561159c5761159c611536565b816040528381528660208588010111156115b4575f80fd5b836020870160208301375f602085830101528094505050505092915050565b5f805f606084860312156115e5575f80fd5b83359250602084013567ffffffffffffffff80821115611603575f80fd5b61160f8783880161154a565b93506040860135915080821115611624575f80fd5b506116318682870161154a565b9150509250925092565b634e487b7160e01b5f52603260045260245ffd5b805163ffffffff81168114611662575f80fd5b919050565b5f8060408385031215611678575f80fd5b6116818361164f565b915061168f6020840161164f565b90509250929050565b634e487b7160e01b5f52601160045260245ffd5b80820180821115610d6f57610d6f611698565b81810381811115610d6f57610d6f611698565b5f815180845260208085019450602084015f5b83811015611701578151875295820195908201906001016116e5565b509495945050505050565b5f81518084525f5b8181101561173057602081850181015186830182015201611714565b505f602082860101526020601f19601f83011685010191505092915050565b606081525f61176160608301866116d2565b8281036020840152611773818661170c565b9050828103604084015261129a818561170c565b5f60208284031215611797575f80fd5b81518015158114610df7575f80fd5b602081525f610d6c60208301846116d2565b605481106117d457634e487b7160e01b5f52602160045260245ffd5b9052565b8481526001600160a01b0384166020820152608060408201525f6117ff608083018561170c565b9050610f0060608301846117b8565b5f6020828403121561181e575f80fd5b5051919050565b82815260408101610df760208301846117b856fea164736f6c6343000818000a",
  "linkReferences": {},
  "deployedLinkReferences": {}
}