{
  "_format": "hh-sol-artifact-1",
  "contractName": "LoanCommitment",
  "sourceName": "contracts/LoanCommitment.sol",
  "abi": [
    {
      "inputs": [],
      "stateMutability": "nonpayable",
      "type": "constructor"
    },
    {
      "anonymous": false,
      "inputs": [
        {
          "indexed": true,
          "internalType": "address",
          "name": "user",
          "type": "address"
        },
        {
          "indexed": false,
          "internalType": "uint256",
          "name": "timestamp",
          "type": "uint256"
        }
      ],
      "name": "CommitmentSubmitted",
      "type": "event"
    },
    {
      "anonymous": false,
      "inputs": [
        {
          "indexed": true,
          "internalType": "address",
          "name": "user",
          "type": "address"
        }
      ],
      "name": "CommitmentViewed",
      "type": "event"
    },
    {
      "inputs": [
        {
          "internalType": "address",
          "name": "",
          "type": "address"
        }
      ],
      "name": "commitmentTimestamp",
      "outputs": [
        {
          "internalType": "uint256",
          "name": "",
          "type": "uint256"
        }
      ],
      "stateMutability": "view",
      "type": "function"
    },
    {
      "inputs": [],
      "name": "contractText",
      "outputs": [
        {
          "internalType": "string",
          "name": "",
          "type": "string"
        }
      ],
      "stateMutability": "view",
      "type": "function"
    },
    {
      "inputs": [],
      "name": "getContractText",
      "outputs": [
        {
          "internalType": "string",
          "name": "",
          "type": "string"
        }
      ],
      "stateMutability": "view",
      "type": "function"
    },
    {
      "inputs": [],
      "name": "getMyCommitment",
      "outputs": [
        {
          "internalType": "bytes32",
          "name": "",
          "type": "bytes32"
        }
      ],
      "stateMutability": "view",
      "type": "function"
    },
    {
      "inputs": [],
      "name": "getMyCommitmentTimestamp",
      "outputs": [
        {
          "internalType": "uint256",
          "name": "",
          "type": "uint256"
        }
      ],
      "stateMutability": "view",
      "type": "function"
    },
    {
      "inputs": [
        {
          "internalType": "address",
          "name": "",
          "type": "address"
        }
      ],
      "name": "hasCommitted",
      "outputs": [
        {
          "internalType": "bool",
          "name": "",
          "type": "bool"
        }
      ],
      "stateMutability": "view",
      "type": "function"
    },
    {
      "inputs": [
        {
          "internalType": "address",
          "name": "user",
          "type": "address"
        }
      ],
      "name": "hasUserCommitted",
      "outputs": [
        {
          "internalType": "bool",
          "name": "",
          "type": "bool"
        }
      ],
      "stateMutability": "view",
      "type": "function"
    },
    {
      "inputs": [],
      "name": "protocolId",
      "outputs": [
        {
          "internalType": "uint256",
          "name": "",
          "type": "uint256"
        }
      ],
      "stateMutability": "view",
      "type": "function"
    },
    {
      "inputs": [
        {
          "internalType": "externalEuint32",
          "name": "encryptedAmount",
          "type": "bytes32"
        },
        {
          "internalType": "bytes",
          "name": "proof",
          "type": "bytes"
        }
      ],
      "name": "submitCommitment",
      "outputs": [],
      "stateMutability": "nonpayable",
      "type": "function"
    }
  ],
  "bytecode": "0x608060405234801562000010575f80fd5b50466001036200010557620000ff6200005660408051606080820183525f8083526020808401829052928401819052835191820184528082529181018290529182015290565b80517f9e7b61f58c47dc699ac88507c4f5bb9f121c03808c5676a8078fe583e464970080546001600160a01b03199081166001600160a01b039384161790915560208301517f9e7b61f58c47dc699ac88507c4f5bb9f121c03808c5676a8078fe583e46497018054831691841691909117905560408301517f9e7b61f58c47dc699ac88507c4f5bb9f121c03808c5676a8078fe583e46497028054909216921691909117905550565b62000218565b4662aa36a7036200018f57620000ff62000056604080516060810182525f8082526020820181905291810191909152506040805160608101825273f0ffdc93b7e186bc2f8cb3daa75d86d1930a433d81527392c920834ec8941d2c77d188936e1f7a6f49c127602082015273be0e383937d564d7ff0bc3b46c51f0bf8d5c311a9181019190915290565b46617a690362000218576200021862000056604080516060810182525f8082526020820181905291810191909152506040805160608101825273f0ffdc93b7e186bc2f8cb3daa75d86d1930a433d81527392c920834ec8941d2c77d188936e1f7a6f49c127602082015273be0e383937d564d7ff0bc3b46c51f0bf8d5c311a9181019190915290565b6040518061042001604052806103e2815260200162000bd46103e291395f90620002439082620002e8565b50620003b4565b634e487b7160e01b5f52604160045260245ffd5b600181811c908216806200027357607f821691505b6020821081036200029257634e487b7160e01b5f52602260045260245ffd5b50919050565b601f821115620002e357805f5260205f20601f840160051c81016020851015620002bf5750805b601f840160051c820191505b81811015620002e0575f8155600101620002cb565b50505b505050565b81516001600160401b038111156200030457620003046200024a565b6200031c816200031584546200025e565b8462000298565b602080601f83116001811462000352575f84156200033a5750858301515b5f19600386901b1c1916600185901b178555620003ac565b5f85815260208120601f198616915b82811015620003825788860151825594840194600190910190840162000361565b5085821015620003a057878501515f19600388901b60f8161c191681555b505060018460011b0185555b505050505050565b61081280620003c25f395ff3fe608060405234801561000f575f80fd5b506004361061009f575f3560e01c8063ca8bd33f11610072578063d2bf389a11610058578063d2bf389a14610164578063da1f12ab1461016c578063e406760614610174575f80fd5b8063ca8bd33f14610147578063cfe0bf8b1461015c575f80fd5b806380bb0e25146100a357806388ffa4bf146100b8578063c6dbe15a146100ea578063c78155b51461011c575b5f80fd5b6100b66100b1366004610672565b61017c565b005b6100d76100c63660046106e7565b60036020525f908152604090205481565b6040519081526020015b60405180910390f35b61010c6100f83660046106e7565b60026020525f908152604090205460ff1681565b60405190151581526020016100e1565b61010c61012a3660046106e7565b6001600160a01b03165f9081526002602052604090205460ff1690565b61014f61023e565b6040516100e19190610750565b6100d76102cd565b6100d7610353565b6100d76103d4565b61014f610409565b5f6101bc8484848080601f0160208091040260200160405190810160405280939291908181526020018383808284375f9201919091525061049492505050565b335f90815260016020818152604080842085905560028252808420805460ff191690931790925560039052902042905590506101f7816104a8565b5061020281336104b7565b5060405142815233907f397352b2a7ed3cdda10d4ecae444ed8cea73fcc55b7efd000f0af8e6cfba4f539060200160405180910390a250505050565b60605f805461024c90610762565b80601f016020809104026020016040519081016040528092919081815260200182805461027890610762565b80156102c35780601f1061029a576101008083540402835291602001916102c3565b820191905f5260205f20905b8154815290600101906020018083116102a657829003601f168201915b5050505050905090565b335f9081526002602052604081205460ff166103405760405162461bcd60e51b815260206004820152602760248201527f596f752068617665206e6f74207375626d6974746564206120636f6d6d69746d604482015266195b9d081e595d60ca1b60648201526084015b60405180910390fd5b50335f9081526001602052604090205490565b335f9081526002602052604081205460ff166103c15760405162461bcd60e51b815260206004820152602760248201527f596f752068617665206e6f74207375626d6974746564206120636f6d6d69746d604482015266195b9d081e595d60ca1b6064820152608401610337565b50335f9081526003602052604090205490565b5f466001036103e35750600190565b4662aa36a7036103f4575061271190565b46617a6903610404575061271190565b505f90565b5f805461041590610762565b80601f016020809104026020016040519081016040528092919081815260200182805461044190610762565b801561048c5780601f106104635761010080835404028352916020019161048c565b820191905f5260205f20905b81548152906001019060200180831161046f57829003601f168201915b505050505081565b5f6104a1838360046104c9565b9392505050565b5f6104b382306105e9565b5090565b5f6104c283836105e9565b5090919050565b7f9e7b61f58c47dc699ac88507c4f5bb9f121c03808c5676a8078fe583e46497015460405163045fc19560e11b81525f917f9e7b61f58c47dc699ac88507c4f5bb9f121c03808c5676a8078fe583e4649700916001600160a01b03909116906308bf832a9061054290889033908990899060040161079a565b6020604051808303815f875af115801561055e573d5f803e3d5ffd5b505050506040513d601f19601f8201168201806040525081019061058291906107ee565b8154604051630f8e573b60e21b8152600481018390523360248201529193506001600160a01b031690633e395cec906044015f604051808303815f87803b1580156105cb575f80fd5b505af11580156105dd573d5f803e3d5ffd5b50505050509392505050565b5f7f9e7b61f58c47dc699ac88507c4f5bb9f121c03808c5676a8078fe583e46497008054604051635ca4b5b160e11b8152600481018690526001600160a01b03858116602483015292935091169063b9496b62906044015f604051808303815f87803b158015610657575f80fd5b505af1158015610669573d5f803e3d5ffd5b50505050505050565b5f805f60408486031215610684575f80fd5b83359250602084013567ffffffffffffffff808211156106a2575f80fd5b818601915086601f8301126106b5575f80fd5b8135818111156106c3575f80fd5b8760208285010111156106d4575f80fd5b6020830194508093505050509250925092565b5f602082840312156106f7575f80fd5b81356001600160a01b03811681146104a1575f80fd5b5f81518084525f5b8181101561073157602081850181015186830182015201610715565b505f602082860101526020601f19601f83011685010191505092915050565b602081525f6104a1602083018461070d565b600181811c9082168061077657607f821691505b60208210810361079457634e487b7160e01b5f52602260045260245ffd5b50919050565b8481526001600160a01b0384166020820152608060408201525f6107c1608083018561070d565b9050605483106107df57634e487b7160e01b5f52602160045260245ffd5b82606083015295945050505050565b5f602082840312156107fe575f80fd5b505191905056fea164736f6c6343000818000a3d3d3d3d3d3d3d3d3d3d3d3d3d3d3d3d3d3d3d3d3d3d3d3d3d3d3d3d3d3d3d3d0ae6a087e58786205553445420e5809fe8b4b7e6848fe684bfe689bfe8afbae4b9a60a3d3d3d3d3d3d3d3d3d3d3d3d3d3d3d3d3d3d3d3d3d3d3d3d3d3d3d3d3d3d3d3d0a0ae69cace4babae9809ae8bf87e6ada4e699bae883bde59088e7baa6e98391e9878de689bfe8afbaefbc9a0a0a312e20e689bfe8afbae7b1bbe59e8befbc9a0a202020e296a120e684bfe6848fe5809fe587ba20555344540a202020e296a120e684bfe6848fe5809fe585a520555344540a0a322e20e689bfe8afbae98791e9a29defbc9a0a202020e69cace4babae689bfe8afbae79a84e98791e9a29de5b7b2e9809ae8bf87e58aa0e5af86e696b9e5bc8fe68f90e4baa4e887b3e58cbae59d97e993beefbc8c0a202020e4bb85e69cace4babae58fafe69fa5e79c8be585b7e4bd93e98791e9a29defbc8ce8afa5e689bfe8afbae585b7e69c89e4b88de58fafe7afa1e694b9e680a7e380820a0a332e20e59088e5908ce69da1e6acbeefbc9a0a2020202d20e69cace689bfe8afbae8aeb0e5bd95e4ba8ee4bba5e5a4aae59d8ae58cbae59d97e993beefbc8ce585b7e69c89e697b6e997b4e688b3e8af81e6988e0a2020202d20e689bfe8afbae98791e9a29de9809ae8bf8720464845564d20e58aa0e5af86e5ad98e582a8efbc8ce4bf9de68aa4e99a90e7a7810a2020202d20e69cace4babae58fafe99a8fe697b6e69fa5e79c8be887aae5b7b1e79a84e689bfe8afbae8aeb0e5bd950a2020202d20e69cace689bfe8afbae4b88de69e84e68890e6b395e5be8be4b989e58aa1efbc8ce4bb85e4bd9ce4b8bae6848fe684bfe8a1a8e8bebe0a0a342e20e99a90e7a781e5a3b0e6988eefbc9a0a202020e9809ae8bf87e5908ce68081e58aa0e5af86e68a80e69cafefbc8ce682a8e79a84e689bfe8afbae98791e9a29de5b086e8a2abe58aa0e5af86e5ad98e582a8efbc8c0a202020e58faae69c89e682a8e69cace4babae58fafe4bba5e8a7a3e5af86e69fa5e79c8befbc8ce585b6e4bb96e4bbbbe4bd95e4babaefbc88e58c85e68bace59088e7baa60a202020e68980e69c89e88085efbc89e983bde697a0e6b395e88eb7e79fa5e682a8e79a84e585b7e4bd93e98791e9a29de380820a0a352e20e68a80e69cafe694afe68c81efbc9a0a202020e69cace59088e7baa6e59fbae4ba8e205a616d6120464845564d20e68a80e69cafefbc8ce983a8e7bdb2e4ba8ee4bba5e5a4aae59d8a0a2020205365706f6c696120e6b58be8af95e7bd91efbc8ce4bba3e7a081e5bc80e6ba90e58fafe5aea1e8aea1e380820a0a3d3d3d3d3d3d3d3d3d3d3d3d3d3d3d3d3d3d3d3d3d3d3d3d3d3d3d3d3d3d3d3d",
  "linkReferences": {},
  "deployedLinkReferences": {}
}